{
  "contractName": "TimeBox",
  "abi": [
    {
      "inputs": [
        {
          "internalType": "uint256",
          "name": "_lockedAtInDays",
          "type": "uint256"
        }
      ],
      "stateMutability": "nonpayable",
      "type": "constructor"
    },
    {
      "anonymous": false,
      "inputs": [
        {
          "indexed": false,
          "internalType": "uint256",
          "name": "block",
          "type": "uint256"
        },
        {
          "indexed": false,
          "internalType": "uint256",
          "name": "lockedAt",
          "type": "uint256"
        }
      ],
      "name": "SetupTimeBox",
      "type": "event"
    },
    {
      "anonymous": false,
      "inputs": [
        {
          "indexed": false,
          "internalType": "address",
          "name": "recipient",
          "type": "address"
        },
        {
          "indexed": false,
          "internalType": "uint256",
          "name": "amount",
          "type": "uint256"
        }
      ],
      "name": "Withdraw",
      "type": "event"
    },
    {
      "inputs": [],
      "name": "lockedAt",
      "outputs": [
        {
          "internalType": "uint256",
          "name": "",
          "type": "uint256"
        }
      ],
      "stateMutability": "view",
      "type": "function",
      "constant": true
    },
    {
      "inputs": [],
      "name": "owner",
      "outputs": [
        {
          "internalType": "address",
          "name": "",
          "type": "address"
        }
      ],
      "stateMutability": "view",
      "type": "function",
      "constant": true
    },
    {
      "inputs": [
        {
          "internalType": "address payable",
          "name": "recipient",
          "type": "address"
        }
      ],
      "name": "withdraw",
      "outputs": [],
      "stateMutability": "nonpayable",
      "type": "function"
    }
  ],
  "bytecode": "0x6080604052336000806101000a81548173ffffffffffffffffffffffffffffffffffffffff021916908373ffffffffffffffffffffffffffffffffffffffff1602179055503480156200005157600080fd5b5060405162000ac738038062000ac783398181016040528101906200007791906200018d565b620000d342620000c2620000af6200009c8560186200011d60201b620002d11760201c565b603c6200011d60201b620002d11760201c565b603c6200011d60201b620002d11760201c565b6200013560201b620002e71760201c565b6001819055507fba7069028de990778b28ee68a95b06f58102562399e3d1d5f3319a304e5e27e5436001546040516200010e929190620001d0565b60405180910390a150620002ea565b600081836200012d91906200022c565b905092915050565b600081836200014591906200028d565b905092915050565b600080fd5b6000819050919050565b620001678162000152565b81146200017357600080fd5b50565b60008151905062000187816200015c565b92915050565b600060208284031215620001a657620001a56200014d565b5b6000620001b68482850162000176565b91505092915050565b620001ca8162000152565b82525050565b6000604082019050620001e76000830185620001bf565b620001f66020830184620001bf565b9392505050565b7f4e487b7100000000000000000000000000000000000000000000000000000000600052601160045260246000fd5b6000620002398262000152565b9150620002468362000152565b9250817fffffffffffffffffffffffffffffffffffffffffffffffffffffffffffffffff0483118215151615620002825762000281620001fd565b5b828202905092915050565b60006200029a8262000152565b9150620002a78362000152565b9250827fffffffffffffffffffffffffffffffffffffffffffffffffffffffffffffffff03821115620002df57620002de620001fd565b5b828201905092915050565b6107cd80620002fa6000396000f3fe608060405234801561001057600080fd5b50600436106100415760003560e01c806351cff8d9146100465780638da5cb5b14610062578063b216348214610080575b600080fd5b610060600480360381019061005b9190610360565b61009e565b005b61006a6102a7565b60405161007791906103ae565b60405180910390f35b6100886102cb565b60405161009591906103e2565b60405180910390f35b60008054906101000a900473ffffffffffffffffffffffffffffffffffffffff1673ffffffffffffffffffffffffffffffffffffffff163373ffffffffffffffffffffffffffffffffffffffff161461012c576040517f08c379a000000000000000000000000000000000000000000000000000000000815260040161012390610480565b60405180910390fd5b600154421015610171576040517f08c379a0000000000000000000000000000000000000000000000000000000008152600401610168906104ec565b60405180910390fd5b600073ffffffffffffffffffffffffffffffffffffffff168173ffffffffffffffffffffffffffffffffffffffff1614156101e1576040517f08c379a00000000000000000000000000000000000000000000000000000000081526004016101d89061057e565b60405180910390fd5b60004711610224576040517f08c379a000000000000000000000000000000000000000000000000000000000815260040161021b90610610565b60405180910390fd5b8073ffffffffffffffffffffffffffffffffffffffff166108fc479081150290604051600060405180830381858888f1935050505015801561026a573d6000803e3d6000fd5b507f884edad9ce6fa2440d8a54cc123490eb96d2768479d49ff9c7366125a9424364814760405161029c92919061068f565b60405180910390a150565b60008054906101000a900473ffffffffffffffffffffffffffffffffffffffff1681565b60015481565b600081836102df91906106e7565b905092915050565b600081836102f59190610741565b905092915050565b600080fd5b600073ffffffffffffffffffffffffffffffffffffffff82169050919050565b600061032d82610302565b9050919050565b61033d81610322565b811461034857600080fd5b50565b60008135905061035a81610334565b92915050565b600060208284031215610376576103756102fd565b5b60006103848482850161034b565b91505092915050565b600061039882610302565b9050919050565b6103a88161038d565b82525050565b60006020820190506103c3600083018461039f565b92915050565b6000819050919050565b6103dc816103c9565b82525050565b60006020820190506103f760008301846103d3565b92915050565b600082825260208201905092915050565b7f546869732066756e6374696f6e206973207265737472696374656420746f207460008201527f686520636f6e74726163742773206f776e657200000000000000000000000000602082015250565b600061046a6033836103fd565b91506104758261040e565b604082019050919050565b600060208201905081810360008301526104998161045d565b9050919050565b7f546f6f206561726c792c2062652070617469656e74207061646177616e2e0000600082015250565b60006104d6601e836103fd565b91506104e1826104a0565b602082019050919050565b60006020820190508181036000830152610505816104c9565b9050919050565b7f596f75206372617a793f2c20796f75207265616c6c792077616e74206275726e60008201527f20796f752065746865723f000000000000000000000000000000000000000000602082015250565b6000610568602b836103fd565b91506105738261050c565b604082019050919050565b600060208201905081810360008301526105978161055b565b9050919050565b7f596f752063616e27742072656170207768617420796f75206469646e2774207360008201527f6f77000000000000000000000000000000000000000000000000000000000000602082015250565b60006105fa6022836103fd565b91506106058261059e565b604082019050919050565b60006020820190508181036000830152610629816105ed565b9050919050565b6000819050919050565b600061065561065061064b84610302565b610630565b610302565b9050919050565b60006106678261063a565b9050919050565b60006106798261065c565b9050919050565b6106898161066e565b82525050565b60006040820190506106a46000830185610680565b6106b160208301846103d3565b9392505050565b7f4e487b7100000000000000000000000000000000000000000000000000000000600052601160045260246000fd5b60006106f2826103c9565b91506106fd836103c9565b9250817fffffffffffffffffffffffffffffffffffffffffffffffffffffffffffffffff0483118215151615610736576107356106b8565b5b828202905092915050565b600061074c826103c9565b9150610757836103c9565b9250827fffffffffffffffffffffffffffffffffffffffffffffffffffffffffffffffff0382111561078c5761078b6106b8565b5b82820190509291505056fea2646970667358221220e008b2e0886ddbbf1dc56da4da1a3f84b0a1b867fc1e24860e66b9dc0346120c64736f6c634300080b0033",
  "immutableReferences": {},
  "source": "// SPDX-License-Identifier: MIT\npragma solidity >=0.4.22 <0.9.0;\n\nimport \"../node_modules/@openzeppelin/contracts/utils/math/SafeMath.sol\";\n\ncontract TimeBox {\n    event Withdraw(address recipient, uint256 amount);\n    event SetupTimeBox(uint256 block, uint256 lockedAt);\n\n    address public owner = msg.sender;\n    uint256 public lockedAt;\n\n    modifier restricted() {\n        require(\n            msg.sender == owner,\n            \"This function is restricted to the contract's owner\"\n        );\n        _;\n    }\n\n    constructor(uint256 _lockedAtInDays) {\n        lockedAt = SafeMath.add(\n            block.timestamp,\n            SafeMath.mul(\n                SafeMath.mul(SafeMath.mul(_lockedAtInDays, 24), 60),\n                60\n            )\n        );\n        emit SetupTimeBox(block.number, lockedAt);\n    }\n\n    function withdraw(address payable recipient) public restricted {\n        require(block.timestamp >= lockedAt, \"Too early, be patient padawan.\");\n        require(\n            recipient != address(0),\n            \"You crazy?, you really want burn you ether?\"\n        );\n        require(\n            address(this).balance > 0,\n            \"You can't reap what you didn't sow\"\n        );\n        recipient.transfer(address(this).balance);\n        emit Withdraw(recipient, address(this).balance);\n    }\n}\n",
  "sourcePath": "/home/patane/DEV/web3/TimeBox/contracts/TimeBox.sol",
  "compiler": {
    "name": "solc",
    "version": "0.8.11+commit.d7f03943.Emscripten.clang"
  },
  "schemaVersion": "3.4.4",
  "updatedAt": "2022-01-11T11:10:48.639Z",
  "networkType": "ethereum",
  "devdoc": {
    "kind": "dev",
    "methods": {},
    "version": 1
  },
  "userdoc": {
    "kind": "user",
    "methods": {},
    "version": 1
  }
}